:100000000C9446000C9463000C9458000C94580017
:100010000C9458000C9458000C9458000C94580000
:100020000C9458000C9458000C9458000C945800F0
:100030000C9458000C9458000C945A000C945800DE
:100040000C9458000C9458000C9458000C945800D0
:100050000C9458000C9458000C9458000C945800C0
:100060000C9458000C9458000C9458000C945800B0
:100070000C9458000C9458000C9458000C945800A0
:100080000C9458000C9458000C94580011241FBE76
:10009000CFEFD0E1DEBFCDBF21E0A0E0B1E001C0F5
:1000A0001D92A230B207E1F70E948B000C94AB00C6
:1000B0000C9400008091000186958093000180954A
:1000C00085BB1895089589B78E7F89BF80910101FE
:1000D000811110C081E08093010180916A008E7FC0
:1000E00080936A00D89A8FEF809300018EB5836069
:1000F0008EBD0CC01092010180916A0081608093D6
:100100006A00D8988EB58C7F8EBD15BA89B781608C
:1001100089BF1895089581E08ABB1BBA8FEF84BB15
:1001200015BA1FBC10927A008FEF9FEF97BD86BD66
:100130001DBC1CBC1EBC87B7846087BF80916A0051
:10014000836080936A0089B7816089BF88B78160C6
:0A01500088BF7894FFCFF894FFCF2A
:00000001FF
